:020000040800F2
:10000000008001201108000861080008610800084C
:10001000610800086108000861080008000000008D
:10002000000000000000000000000000610800085F
:10003000610800080000000061080008610800086D
:1000400061080008610800086108000861080008EC
:1000500061080008610800086108000861080008DC
:1000600061080008610800086108000861080008CC
:1000700061080008610800086108000861080008BC
:1000800061080008610800086108000861080008AC
:10009000610800086108000861080008610800089C
:1000A000610800086108000861080008610800088C
:1000B000610800086108000861080008610800087C
:1000C000610800086108000861080008610800086C
:1000D000610800086108000861080008610800085C
:1000E000610800086108000861080008610800084C
:1000F000610800086108000861080008610800083C
:10010000610800086108000861080008610800082B
:10011000610800086108000861080008610800081B
:10012000610800086108000861080008610800080B
:1001300061080008610800086108000861080008FB
:1001400061080008610800086108000861080008EB
:1001500061080008610800086108000861080008DB
:1001600061080008610800086108000861080008CB
:10017000610800086108000861080008000000002C
:08018000610800086108000895
:1001A00002780B78012A28BF9A4240F0D8806DE986
:1001B000044540EA0104CDE902676FF0000C4FEA04
:1001C00044721AB380EA010414F0070F6BD100F0F7
:1001D000070420F0070004F0030521F007014FEAAF
:1001E000C505F0E8042314F0040FF1E804670CFAE5
:1001F00005F462EA040266EA04060BD063EA04032B
:10020000624667EA0407664604E000BFF0E804239C
:10021000F1E8046782FA4CF582EA0604A4FA8CF449
:100220006CBB83FA4CF583EA0705A5FA8CF595B902
:1002300050E9022351E9026782FA4CF582EA06048A
:10024000A4FA8CF483FA4CF583EA0705A5FA8CF539
:100250002543DBD09CB92DBAB5FA85F424F0070408
:1002600027FA04F1DDE9026723FA04F303F0FF0043
:1002700001F0FF01FDE80445A0EB0100704724BA3E
:10028000B4FA84F424F0070426FA04F1DDE90267E5
:1002900022FA04F202F0FF0001F0FF01FDE804453C
:1002A000A0EB0100704714F0030F3CD110F00304E1
:1002B00028D150F8082B51F8083B82FA4CF582EA15
:1002C0000305A5FA8CF55DB950F8042C51F8043CEF
:1002D00082FA4CF582EA0305A5FA8CF5002DE8D0E8
:1002E0002DBAB5FA85F424F0070423FA04F122FAB2
:1002F00004F202F0FF0001F0FF01FDE80445A0EB6D
:10030000010070474FEAC40420F0030050F8082BA6
:1003100021F0030151F8083B0CFA04F462EA0402EC
:1003200063EA0403C9E710F003041DD0A1EB040144
:1003300020F00300E40750F8042B06D012D28B788B
:100340005FFAA2F4E41A06D12BB1CB785FFAB2F4CB
:10035000E41A00D133B920465DF8104B7047A2EB88
:100360000300704701F1040150F8042BCC0721F081
:10037000030151F8043B48D824D222F07F4482FA8A
:100380004CF594EA1325A5FA8CF50AD165B951F814
:10039000043B84EA0204B4EB036F0ED150F8042B43
:1003A000EBE74FEA132355E035F07F454DD1087850
:1003B000FDE80445C0F1000070474FEA126203F007
:1003C000FF0347E002EA1C4482FA4CF594EA134525
:1003D000A5FA8CF50AD165B951F8043B84EA020408
:1003E000B4EB034F0CD150F8042BEBE74FEA134367
:1003F00030E015EA1C4528D10B884FEA124229E06B
:100400004FEA124203EA1C4324E002F0FF0482FA9E
:100410004CF594EA1365A5FA8CF50AD165B951F843
:10042000043B84EA0204B4EB032F09D150F8042BF7
:10043000EBE74FEA13630DE015F0FF0F05D10B68F2
:100440004FEA122223F07F4304E04FF00000FDE862
:100450000445704712BA1BBA82FA4CF482EA0304CC
:10046000A4FA8CF5B5FA85F402FA04F203FA04F35F
:100470004FEA1260FDE80445A0EB1360704700BF2F
:1004800000F1340191E838009C46A6464CF8045D22
:1004900090E8FF0FE54600BD90EC210B704700BFD0
:1004A00080EC210B704700BF90EC200B704700BF21
:1004B00080EC200B704700BFD0EC200B704700BFD2
:1004C000C0EC200B704700BFF0EC0201F0EC021111
:1004D000F0EC0221F0EC0231F0EC0241F0EC0251C0
:1004E000F0EC0261F0EC0271F0EC0281F0EC0291B0
:1004F000F0EC02A1F0EC02B1F0EC02C1F0EC02D1A0
:10050000F0EC02E1F0EC02F1704700BFE0EC020118
:10051000E0EC0211E0EC0221E0EC0231E0EC0241FF
:10052000E0EC0251E0EC0261E0EC0271E0EC0281EF
:10053000E0EC0291E0EC02A1E0EC02B1E0EC02C1DF
:10054000E0EC02D1E0EC02E1E0EC02F1704700BF28
:10055000B0FC0181B0FC0191B0FC01A1B0FC01B183
:10056000704700BFA0FC0181A0FC0191A0FC01A18B
:10057000A0FC01B1704700BFEC4600B52DE900506A
:100580002DE9FF1F4FF000032DE90C0001A900F039
:1005900059FFDDF840E012B0704700BFEC4600B5EF
:1005A0002DE900502DE9FF1F4FF000032DE90C004D
:1005B00001A900F085FFDDF840E012B0704700BFF0
:1005C000EC4600B52DE900502DE9FF1F4FF0000368
:1005D0002DE90C0001A900F095FFDDF840E012B014
:1005E000704700BFEC4600B52DE900502DE9FF1F14
:1005F0004FF000032DE90C0001AB00F059FFDDF8CE
:1006000040E012B0704700BFEC4600B52DE9005045
:100610002DE9FF1F4FF000032DE90C0001AA00F0A7
:10062000CDFFDDF840E012B0704700BF844641EADC
:10063000000313F003036DD1403A41D351F8043B5A
:1006400040F8043B51F8043B40F8043B51F8043BAC
:1006500040F8043B51F8043B40F8043B51F8043B9C
:1006600040F8043B51F8043B40F8043B51F8043B8C
:1006700040F8043B51F8043B40F8043B51F8043B7C
:1006800040F8043B51F8043B40F8043B51F8043B6C
:1006900040F8043B51F8043B40F8043B51F8043B5C
:1006A00040F8043B51F8043B40F8043B51F8043B4C
:1006B00040F8043B51F8043B40F8043B403ABDD2BB
:1006C000303211D351F8043B40F8043B51F8043B5D
:1006D00040F8043B51F8043B40F8043B51F8043B1C
:1006E00040F8043B103AEDD20C3205D351F8043BEC
:1006F00040F8043B043AF9D2043208D0D2071CBFB8
:1007000011F8013B00F8013B01D30B8803806046E0
:10071000704700BF082A13D38B078DD010F0030356
:100720008AD0C3F10403D21ADB071CBF11F8013BC6
:1007300000F8013B80D331F8023B20F8023B7BE715
:10074000043AD9D3013A11F8013B00F8013BF9D240
:100750000B7803704B7843708B78837060467047DA
:100760000348044B834202D0034B03B11847704740
:100770006405002064050020000000000548064BC9
:100780001B1AD90F01EBA301491002D0034B03B18F
:100790001847704764050020640500200000000031
:1007A00010B5064C237843B9FFF7DAFF044B13B1B9
:1007B0000448AFF300800123237010BD64050020BE
:1007C000000000000820000808B5054B1BB10549D2
:1007D0000548AFF30080BDE80840FFF7CFBF00BF7A
:1007E00000000000680500200820000880B582B0E5
:1007F00000AF7860396000F035F800F045F8034646
:100800001A6804321268012118469047F5E7000083
:10081000DFF834D000F05EF90C480D490D4A002392
:1008200002E0D458C4500433C4188C42F9D30A4AA5
:100830000A4C002301E013600432A242FBD300F013
:10084000B9FAFFF7D3FFFEE7008001200000002087
:100850006405002048220008640500209808002054
:10086000FEE7000080B500AF054BDB6C044A43F0A7
:100870000103D364034800F089F80123184680BDC2
:10088000001002408005002080B400AF024B1846E3
:10089000BD465DF8047B70478005002080B500AF41
:1008A0004FF0904305220349034800F04BF800BF86
:1008B00080BD00BF000000208005002080B500AF93
:1008C000FFF7ECFF80BD80B487B000AFF860B9607F
:1008D0007A603B6001223B6802FA03F3013B7B61D3
:1008E000FB681A687B68396801FB03F3796901FAD0
:1008F00003F3DB431A40FB681A60FB681A687969E6
:10090000BB6819407B68386800FB03F301FA03F306
:100910001A43FB681A6000BF1C37BD465DF8047BB4
:100920007047000080B483B000AF7860044A7B68F1
:100930001A607B6818460C37BD465DF8047B70472B
:100940003C20000880B584B000AFF860B9603B601F
:100950001346FB71FB681846FFF7E4FF0A4AFB6881
:100960001A60FB68BA6804331068186012791A714B
:10097000FB68FA795A72FB683A68DA60FB681846D5
:100980001037BD4680BD00BF2820000880B584B068
:1009900000AF78607B685B7A0F2B03D87B68DB68DD
:1009A000002B01D100234EE07B685B7ADB08FB73F0
:1009B000FB7B012B04D17B685B7A083BDBB201E057
:1009C0007B685B7ABB737B68DB6818467B681B7946
:1009D00019467B685B7A1A460223FFF774FF7B682F
:1009E000DB68181D7B685B7919467B685B7A1A4661
:1009F0000123FFF768FF7B68DB6803F108007B6871
:100A00009B7919467B685B7A1A460223FFF75BFFE6
:100A10007B68DB6803F10C007B68DB7919467B6837
:100A20005B7A1A460223FFF74EFF7B68DA68FB7B8E
:100A300008339B00D0187B681B7A1946BA7B0423C5
:100A4000FFF741FF012318461037BD4680BD80B433
:100A500083B000AF78600B46FB70FB78002B0CD0A6
:100A60007B68DB6899697B685B7A103301229A4066
:100A70007B68DB680A439A610CE07B68DB689969F4
:100A80007B685B7A1A46012303FA02F27B68DB6813
:100A90000A439A61012318460C37BD465DF8047B72
:100AA000704780B483B000AF78607B68DB681A69F8
:100AB0007B685B7A194601238B401340002B14BFDF
:100AC00001230023DBB218460C37BD465DF8047BDA
:100AD0007047000080B400AF064BD3F88830054A59
:100AE00043F47003C2F8883000BFBD465DF8047B54
:100AF000704700BF00ED00E070B5036884B00024CB
:100B00009E690394102315460293CDE900446B4679
:100B10001268B0479DF8043003F00603062B03BFAC
:100B2000009B2B600120204604B070BD00989042CD
:100B30000CBF06200120704710B5034B036004462C
:100B400000F0E8F8204610BDB420000810B5054BB1
:100B50000360044600F0DEF82046082100F04AF861
:100B6000204610BDB42000082DE9F041069F0899E9
:100B7000099E8F42044690461D460CD029462046C9
:100B800000F0CCF820B10123376086F80480B371FF
:100B90000020BDE8F081079900F0C0F80028EDD0F2
:100BA00086F805800020BDE8F08100BF38B5154605
:100BB0001C4600F0B3F800B938BD082206232560B2
:100BC000E260237138BD00BF2DE9F04106461746AB
:100BD0001D460C4600F0A2F848B9032D07D823683B
:100BE0003A46314620465B69BDE8F0411847BDE80A
:100BF000F08100BF00F0A8B810B5034B03600446B5
:100C0000FFF79AFF204610BD1421000810B5054BD0
:100C100003600446FFF790FF20460C21FFF7EAFF30
:100C2000204610BD1421000870B582B00446069E0F
:100C300096420D4609D0A06804680696246A2946A3
:100C4000A44602B0BDE87040604719460192009387
:100C500000F064F8DDE900320028ECD0062002B094
:100C600070BD00BF2DE9F04F0D4681B01946DDE99A
:100C70000A8BDDE90CA91C460746164600F04EF823
:100C800080B9D04527D0B86823460468CDE90CA9BF
:100C9000CDE90A8BE46932462946A44601B0BDE895
:100CA000F04F6047002DC9F8008089F804600CDB24
:100CB000A844C24514BF4FF001084FF0060889F858
:100CC0000680002001B0BDE8F08F0235F9D1012384
:100CD00089F80630F5E75946384600F01FF8002835
:100CE000D1D089F80560ECE72DE9F04106460F46C2
:100CF00014461D46FFF75AFF48B9B06801682246FE
:100D00008C692B463946A446BDE8F0416047BDE8F2
:100D1000F08100BF704700BF00207047814211D0B2
:100D200008B5406803782A2B0AD049680B782A2B2B
:100D300008BF0131FFF734FAB0FA80F0400908BD6E
:100D4000002008BD0120704700F000B8024B0146AA
:100D5000186800F0C7B800BF18040020014800F070
:100D600051B800BFF4060020014800F04DB800BFA4
:100D7000F406002038B5074D0022044608462A60D4
:100D800001F032F9431C00D038BD2B68002BFBD09A
:100D9000236038BD00070020082802D14FF480509E
:100DA000704708B500F096F9162303604FF0FF3046
:100DB00008BD00BF70B50F4B0F4DAB42A3EB05064E
:100DC00007D0B610002455F8043B01349847A642DA
:100DD000F9D801F019F9094D094B5E1BAB424FEAF6
:100DE000A60606D0002455F8043B01349847A642D5
:100DF000F9D870BD382200083822000838220008CF
:100E000044220008704700BF704700BF024B13B177
:100E1000024800F005B8704700000000E11000082B
:100E2000002301461A46184600F06EB92DE9F84332
:100E3000064608208946FFF7AFFFDFF8A480054685
:100E40003046FFF78BFFD8F808305F6827F00307BC
:100E5000A7F11104A4EB09042C44B4FBF5F4013C04
:100E600005FB04F4A54208DC00213046FFF782FFB1
:100E7000D8F808303B44984205D03046FFF774FF5D
:100E80000020BDE8F88361423046FFF773FF013070
:100E90000FD0114AD8F808303F1B47F001075F60B8
:100EA000136830461B1B1360FFF75EFF0120BDE88F
:100EB000F88300213046FFF75DFFD8F80820831A39
:100EC0000F2BDADD43F001035360044B02491B682A
:100ED000C01A0860D1E700BF90050020080000207C
:100EE0001000002000295BD0F8B50C460746FFF73C
:100EF00035FF54F804CC744DA4F108022CF0010322
:100F0000D118A8684E68884226F003060CF0010E3E
:100F10007ED088194E60406800F00100BEF1000FDD
:100F20002FD154F8084C121B2344946805F1080C87
:100F3000644562D0D2F80CE0C4F80CE0CEF808406A
:100F400000287FD043F0010050600B60B3F5007FB4
:100F50002FD2D90868685C090131012309B2A34086
:100F600003436B6055F83100906005EBC103083B0B
:100F7000D36045F83120C2603846BDE8F840FFF73D
:100F8000F3BE70B9334405F1080C8868604543F03E
:100F9000010471D0C968C16088605460D350D5E73E
:100FA00070474CF00101B3F5007F44F8041CD350A6
:100FB000CFD3B3F5206F4FEA532045D2980900F103
:100FC000390109B200F13804C900681869580838B5
:100FD000884203D157E08968884204D04C6824F0E5
:100FE00003049C42F7D8C868C2E902108260384600
:100FF000CA60BDE8F840FFF7B7BE88BB1E44D1E920
:101000000213CB60996046F0010353609651B3E739
:101010001E44BEF1000F07D154F8083CD21A1E44FA
:10102000D2E90213CB60996046F001035360274B6D
:10103000AA601B68B3429FD8254B38461968FFF752
:10104000F5FE99E73344A0E714280ED9542821D897
:10105000180B00F16F0109B200F16E04C900B4E78A
:1010600043F0010050600B6086E700F15C0109B2BB
:1010700000F15B04C900A8E7C5E90422C2E902CC7B
:101080005460D35078E76E68A4100123A340334323
:101090006B60A9E7B0F5AA7F07D8D80B00F17801FB
:1010A00009B200F17704C9008FE740F25451884239
:1010B00006D8980C00F17D0100F17C04C90084E79A
:1010C0004FF47E717E2480E7100000200C00002089
:1010D000B8050020014B1868704700BF18040020B5
:1010E00038B5074D074C2C1BA41005D0013C55F812
:1010F000043D9847002CF9D1BDE8384000F08ABF84
:1011000048220008442200082DE9F8431B4D0646FA
:10111000286898460F469146FFF774FE184B1C68E6
:101120001CB3286865681F2D22DC4EB96B1C023584
:10113000636044F82570FFF767FE0020BDE8F88380
:1011400004EB85010123C1F88890D4F88821AB40D5
:101150001A43022EC4F88821C1F80881E6D1D4F8D8
:101160008C211A43C4F88C21E0E7064C1C60D8E7B8
:10117000FFF74AFE4FF0FF30E0E700BF60050020B8
:10118000FC0600200407002003685A004CBF43F00F
:10119000004323F000431844704700BF2DE9F04797
:1011A00059B301F1FF380546164647464FF0000A8D
:1011B0000AEB070101EBD171491005EBC109484663
:1011C000FFF7E2FF88454FEAC104034610D004F15F
:1011D0000800B342284407D8FFF7D6FF0138B042D1
:1011E00008D201F1010AE3E78A4506D04F1EDFE786
:1011F000B042F9D84846BDE8F0874FF000094846AC
:10120000BDE8F087012806D0022802D028B904489A
:10121000704704487047044870470020704700BF7B
:10122000F518000805190008FD18000830B5224B14
:1012300083B004468D1E43B301A92846AFF3008056
:10124000F0B101992A46FFF7A9FF0146C0B1FFF7A7
:101250009BFF4B68A064012B2BD0002B01F10400F5
:1012600025DBFFF791FF002323650368E064002B73
:1012700012DBFFF789FF03460020236103B030BD76
:1012800000230920236103B030BD0C4B0C49C91A5F
:10129000C91018460191D5E7C3F30360FFF7B2FF09
:1012A000031E0CBF09200020236103B030BD0123C1
:1012B000DAE700230520E0E70000000068210008CD
:1012C000382200080368DA0710B5044606D49B07E5
:1012D00000F1500009D5FFF7E7F82368590709D551
:1012E0001A070ED5DB0613D510BDFFF7D5F8236816
:1012F0005907F5D404F1D800FFF7DEF823681A0780
:10130000F0D404F5AC70FFF7DFF82368DB06EBD40C
:1013100004F5EC70BDE81040FFF71AB90346006809
:1013200000B11844704700BF704700BF70B5044655
:101330000E46316C2046FFF779FF054688B9326CBE
:101340006261236932462146012098470828F0D07F
:10135000072806D12846316CFFF7E6FF301DFFF75E
:101360008FF800F0E5FD00BF2DE9F04F0D1DD0F81E
:101370000C90D0F818A0074614460FCDADF5777D38
:101380000DF10C0CACE80F000FCDACE80F000FCD49
:10139000ACE80F0095E80F0002AE4FF0000E8CE8AD
:1013A0000F000DF5F878C6F800E021E0336C7B61A2
:1013B0004FF4F47231464046FFF738F93B69424634
:1013C000394658469847D8F83830B3642146CDE9B5
:1013D000006A05463B4601203A46C847044618BB0A
:1013E0004FF4F47241463046FFF720F9082D19D129
:1013F000316C3846FFF71AFF093405465FFA84FB63
:101400000028D3D0B36BB3643A46CDE9006A3B46BB
:101410004BF010010120C84730B928460DF5777D03
:10142000BDE8F08F072D05D0092528460DF5777DFD
:10143000BDE8F08F2046316CFFF776FF03A8FFF779
:101440001FF800BFF0B5CB6BFBB001F1040C0B64CF
:101450000F460546BCE80F0001AC0FC4BCE80F0006
:101460000FC4BCE80F000FC49CE80F004FF0FF3E14
:1014700084E80F006E46CDF800E006E02B693246A6
:10148000294698470828044608D1316C2846FFF7BA
:10149000CDFE0028F2D009207BB0F0BD3046FFF72A
:1014A00011FF062CF7D139462846FFF73FFF00BF52
:1014B000C160D96B8261196400221946FFF754BFDD
:1014C00070B5C66843690B64AEB903690A46044641
:1014D0000D46014602209847072805D008280FD15D
:1014E00029462046FFF722FF3046296CFFF71CFFF4
:1014F000281DFEF7C5FF0122FFF736FF00F018FD9B
:1015000000F016FDC26808B532B1CA6B0A64BDE8C6
:1015100008400022FFF728BFFFF794FF092008BD0D
:10152000052915D8DFE801F00A031403030501209B
:101530007047009A436C13600020704743B90F2A2C
:1015400006D800EB820200205368009A13607047AF
:101550000220704700B585B00A46002303A9009118
:101560001946FFF7DDFF039805B05DF804FB00BFE7
:10157000052915D8DFE801F00A031403030501204B
:101580007047009B1B6843640020704743B90F2AD3
:1015900006D8009B00EB82021B6853600020704756
:1015A0000220704710B584B0002303AC039200946E
:1015B0000A461946FFF7DCFF04B010BD2DE9F041E3
:1015C000D36BADF5107D02F1040C136407460E4693
:1015D000BCE80F000DF15C0EAEE80F00BCE80F0098
:1015E000AEE80F00BCE80F00AEE80F009CE80F006B
:1015F00016AC4FF0FF388EE80F006D46C4F800803F
:1016000010E0FFF7CFFF31462046B8470346224699
:101610000820294683B92B699847052880460DD0B4
:10162000092809D0216C2846FFF700FE03460C214B
:101630002A462046002BE4D04FF009082046FFF749
:1016400041FE40460DF5107DBDE8F0812DE9F04FDB
:101650001646CA6C89B00D4652F8041B069200F07B
:10166000030CE3B10C0C8DF81D400904E4B20591A4
:1016700002EB840202218DF81C10296DBCF1020FCF
:1016800008BFAA6B11F001080FD005A9304600F081
:10169000CFFA002839D1082009B0BDE8F08F09023F
:1016A00005918DF81D300321E5E71768002FECD078
:1016B00000F008010191E346CDF808809A46BAF19E
:1016C000020F26D01788548802F10409AA6C24F06E
:1016D00001030F21304603EB0208FFF73BFF804573
:1016E00015D827F0010202EB0803834294BF0023C0
:1016F0000123640004F0020407F001072743012FCF
:101700000BD0022F50D0002F45D00920C4E7002372
:10171000EFE7546802F10809D8E7BBF1000F73D175
:10172000CBB1D9F80430D9F80020991C4FEAD27215
:10173000EBD005F158040133049400F0CC8009F19A
:101740000400FFF7EBFD04AB01462846AFF3008031
:10175000002840F0978009F108021768002FAED1E9
:1017600005A93046DDF8088000F062FA0028CCD1E7
:10177000B8F1000F8FD00F213046FFF7EBFE0E219E
:1017800002463046FFF70EFF594A0F213046FFF759
:1017900009FF072080E7BBF1000F02D0002B40F0CB
:1017A000878009F10402D8E7D9F8004024F0004806
:1017B000BBF1000F0FD12BB1019B002B3CD0B8F136
:1017C000000F39D0002C01DA09F1040908F10102F7
:1017D00009EB8202C1E70D213046FFF7BBFE2F6AFD
:1017E0008742EFD1AB6A9945ECD100240423C5E9C7
:1017F0000B434B44C5F828806B63D9F80030A342F3
:1018000070DB01230293E1E70D213046FFF7A2FED2
:101810002C6A84429FD1AB6A99459CD14846FFF718
:10182000B3FC0F2102463046FFF7BCFE2A460021DA
:101830003046FFF7B7FEACE705F15803CDF80CB022
:1018400009F10407B34600241E460BE0384604960F
:10185000FFF764FD0022014604AB2846AFF3008089
:101860000437F8B9444504F10104EFD10D2158467D
:10187000FFF770FE049BC5F828900246C5E90823CF
:10188000062009E704460D213046FFF763FE049E5B
:101890002862022C04BFEE6205F12C06C5E9096935
:1018A0000620F9E65E46D9F80040DDF80CB089E77D
:1018B0004846FFF769FC09F104030446AB63284678
:1018C000AFF3008000283FF420AF22460F213046BE
:1018D000FFF768FE5DE730460D21FFF73BFE264629
:1018E0002862DBE708F1010209EB820097E700BFFD
:1018F000000000000023FFF7A9BE00BF0123FFF78F
:10190000A5BE00BF0223FFF7A1BE00BF2DE9F04135
:101910000646C4B01446052908D8DFE801F01630A1
:101920000773980B3A19102A40F2B780022044B08E
:10193000BDE8F081836B002CF8D153F8042B42648E
:101940008363002044B0BDE8F081002BEED1856BAD
:101950001FFA84FC012006F1040E00FA03F111EADB
:101960000C0F2A4604D052F8041B4EF823101546DB
:101970000133102BF1D1A004E3D4B563E1E7012BCF
:101980004FEA1447A4B2CDD0052BCFD107EB040802
:10199000B8F1200FCAD80F2F40F2BD80002CD0D054
:1019A00002685107A04600F11B81019302AC20465A
:1019B000FEF786FDD6F838C0019B102F4FF0FF329E
:1019C00039464FF0020E38BF102118FB0E2E04EBE3
:1019D000C10184397246604650F8045B41F8045FE7
:1019E000013A551CF8D10CF1040C012B0CEB8E02C2
:1019F00000F0D5800F2FB26340F2FA802046FEF748
:101A00005BFD9EE7032B91D1A7B207EB1443102B8C
:101A10004FEA14448AD80368190700F1A38022AD65
:101A20002846FEF773FD7A00B06B05EBC404531E25
:101A300042B1011B625844F8042B013B5A1CF9D1F6
:101A400000EBC700B0632846FEF73EFD79E7002BA8
:101A50007FF46CAF102C3FF669AF0368D80679D4D9
:101A600022AD2846FEF77EFDB76B294600234FF0D6
:101A7000010C0CFA03F22242384603F1010303D0B1
:101A800050F8042B0A600746042B01F10401F0D141
:101A9000B7632846FEF75CFD53E7102F3FF446AFCF
:101AA0000268D10708D5304622F0030240F8502BD7
:101AB0000193FEF7F5FC019B019322AD2846FEF74A
:101AC000EFFCD6F838C0002C6BD0019B4FF000081B
:101AD00002214FF0FF3214FB012E05EBC701043940
:101AE0007246604650F8044B41F8044F013A541CCA
:101AF000F8D10CF1040C0CEB8E0CB8F1000F39D1BD
:101B0000012B4ED00F2FC6F838C03FF61AAF28462B
:101B1000FEF7CAFC15E70268B8F1100F02F00101E8
:101B20002AD851B1304622F0010242F0020240F8B8
:101B3000502B0193FEF7BCFC019B019322AD28467C
:101B4000FEF7B6FC019B002CE1D0D6F838C04FF070
:101B50000008BDE723F01003336006F5EC70FEF7D4
:101B600001FD7DE723F00803036000F5AC70FEF78C
:101B7000CDFC54E702AC20E7D1B9550726D422ADFD
:101B800028460193FEF794FC02A8FEF799FCA8F101
:101B90001008D6F838C0019BC7F1100498E79446A6
:101BA00022AD0CF10403B3632846FEF775FCC8E6CA
:101BB00022F0010242F0020240F8502B0193FEF79E
:101BC00077FC3268019B12F0040FD8D0304622F027
:101BD000040240F8D82B0193FEF772FC019BCEE77C
:101BE00022F0040240F8D82B0193FEF769FCDDE6F1
:101BF00022A8FEF759FC01E7027A03467AB9427A35
:101C0000A2B14168013A10B44272086803220C1D67
:101C10001A7202025C60000E10BC1A607047006805
:101C2000013A1A7202021A60000E7047B020704723
:101C30002DE9F043064685B00D4600272846FFF7FC
:101C4000DBFFB028044600F0218103065ED500F0DA
:101C5000F003A02B1DD033D8802B00F08780902B71
:101C60002AD100F00D030D2B26D00DF1080800231A
:101C700000F00F021946CDF800803046FFF750FC07
:101C80000023CDF800800D2219463046FFF770FC86
:101C9000D4E7C34303F007034FF47F621A410107FF
:101CA00002F47F6201D542F4804200231946304697
:101CB000FFF72CFE0028C1D0092005B0BDE8F08355
:101CC000B02B68D0C02B3FD1C62800F0CC80C728ED
:101CD00000F0DF8000F0F803C02B00F0EC80C82893
:101CE00000F0F780C928E7D12846FFF785FF0203F7
:101CF00000F00F0002F4702201300243012105239D
:101D00003046FFF703FE002898D0D5E78300DBB20A
:101D100003F104080DF1080900231946CDF80090DD
:101D20000D223046FFF7FCFB029ACDF800906006CA
:101D30004CBFA2EB080242440023029219460D2236
:101D40003046FFF715FC79E700F0F803D02BB3D14C
:101D500000F007020132052342F40022012130463F
:101D6000FFF7D4FD00283FF469AFA5E72846FFF749
:101D700043FF24022043B0F5004F9DD0040100230F
:101D8000A2B219463046FFF7C1FD002894D1C4F332
:101D9000C030074352E7A0F1B103042B00F2B58035
:101DA000DFE803F05729160C030003AA0023009272
:101DB00019460D223046FFF7B3FB3FE700231A46D2
:101DC00005213046FFF7A2FD00283FF437AF73E747
:101DD0002846FFF711FF020300F00F00013002F464
:101DE00070220123024319463046FFF78FFD002879
:101DF0003FF424AF60E700230DF108090D221946D6
:101E0000CDF800903046FFF78BFB2846FFF7F4FE35
:101E10000206029C4FF002080CD500F07F0000FA89
:101E200008F0044428460294FFF7E6FE030608F192
:101E30000708F2D400FA08F004F5017420440023E6
:101E40000290CDF800900D2219463046FFF790FB26
:101E5000F4E62846FFF7D0FE431EDBB20E2B024607
:101E60007FF623AF28E72846FFF7C6FE020300F0FF
:101E70000F00013002F4702203230243194630465A
:101E8000FFF744FD00283FF4D9AE15E76FB30020FB
:101E900013E72846FFF7B0FE431EDBB20E2B0246C7
:101EA0003FF60AAF002304213046FFF72FFD00283C
:101EB0003FF4C4AE00E700F00F020132032342F406
:101EC000202219463046FFF721FD00283FF4B6AE28
:101ED000F2E62846FFF790FE00F0F00200F00F0354
:101EE0001032013343EA023208E702AC3B4639467E
:101EF00000940E223046FFF713FB0F2200943B465E
:101F000039463046FFF734FBC1E700F0FC03B42B41
:101F10003FF4D2AE00F007020132012342F4002266
:101F200019463046FFF7F2FC00283FF487AEC3E6BF
:101F300008B5062000F004F8012000F063F800BFA7
:101F400038B5144B1F281D681ED8D5F83821044613
:101F500062B152F820304BB1012B05D0591C0FD083
:101F6000002142F820109847002038BD284600F094
:101F700029F8224601462846BDE8384000F00CB852
:101F800016232B60012038BD16232B604FF0FF3045
:101F900038BD00BF1804002070B50C46084D03463C
:101FA0000026204611461C462E6000F015F8431C02
:101FB00000D070BD2B68002BFBD0236070BD00BF2C
:101FC0000007002000F000B8024B58221A604FF0C2
:101FD000FF30704700070020024B58221A604FF074
:101FE000FF30704700070020044A05491368002BA2
:101FF00008BF0B461844106018467047940800202C
:1020000098080020FEE700BFF8B500BFF8BC08BC88
:102010009E467047F8B500BFF8BC08BC9E467047A6
:1020200000000000482000088D0900084F0A000841
:10203000A30A00080000000068200008000000005B
:1020400000000000000000001421000854200008D7
:10205000682000084E334C42523553746D6C343650
:1020600048774770696F4500B42000087020000869
:102070004E334C4252344770696F45004E31305FE9
:102080005F637878616269763131375F5F636C6175
:1020900073735F747970655F696E666F45000000E9
:1020A000142100087C2000084821000800000000DE
:1020B000A0200008390B00084D0B0008190D00087E
:1020C000190D0008C90B0008F90A0008AD0B00083B
:1020D000690B00082D0B00084E31305F5F63787884
:1020E000616269763132305F5F73695F636C61731F
:1020F000735F747970655F696E666F4500000000FC
:1021000014210008D8200008A020000800000000CA
:1021100000210008F90B00080D0C0008190D00083B
:10212000190D0008C90B0008F90A0008E90C00089D
:10213000650C0008290C0008537439747970655FC8
:10214000696E666F00000000B420000838210008A6
:1021500001970181B0B008840000000008B101813E
:08216000B0B000840000000093
:1021680038E0FF7F010000007CE6FF7FDCFFFF7F97
:1021780096E6FF7F01000000E4E6FF7F0884978071
:1021880000E7FF7F0100000068E9FF7FB0AA038035
:1021980094E9FF7F0100000048EBFF7FB0B0AC80FE
:1021A8006CEBFF7F010000007CF0FF7FB0A902808C
:1021B8000CF1FF7FB0B0A8805CF1FF7F0100000048
:1021C80064F1FF7FB0B0AA8098F1FF7FAF76B2804C
:1021D8006CF2FF7FAB3F3A80D0F2FF7F0100000036
:1021E800D8F2FF7FB0B0AA8014F3FF7F68FFFF7FAB
:1021F80028F3FF7F01000000BCF3FF7FAC0FB28023
:1022080044F4FF7FB0AF0880E4F6FF7F01000000D0
:10221800F4F6FF7FAC3F0380D8F9FF7F0100000090
:1022280008FAFF7FB0AD048000FDFF7F01000000C9
:0C2238000D0E0008C9070008BD080008D2
:04224400A1070008E6
:102248000100000000000000FFFFFFFF0000020087
:102258000000000000000000100000201000002016
:102268001800002018000020200000202000002076
:102278002800002028000020300000203000002026
:1022880038000020380000204000002040000020D6
:102298004800002048000020500000205000002086
:1022A8005800002058000020600000206000002036
:1022B80068000020680000207000002070000020E6
:1022C8007800002078000020800000208000002096
:1022D8008800002088000020900000209000002046
:1022E8009800002098000020A0000020A0000020F6
:1022F800A8000020A8000020B0000020B0000020A6
:10230800B8000020B8000020C0000020C000002055
:10231800C8000020C8000020D0000020D000002005
:10232800D8000020D8000020E0000020E0000020B5
:10233800E8000020E8000020F0000020F000002065
:10234800F8000020F8000020000100200001002013
:1023580008010020080100201001002010010020C1
:102368001801002018010020200100202001002071
:102378002801002028010020300100203001002021
:1023880038010020380100204001002040010020D1
:102398004801002048010020500100205001002081
:1023A8005801002058010020600100206001002031
:1023B80068010020680100207001002070010020E1
:1023C8007801002078010020800100208001002091
:1023D8008801002088010020900100209001002041
:1023E8009801002098010020A0010020A0010020F1
:1023F800A8010020A8010020B0010020B0010020A1
:10240800B8010020B8010020C0010020C001002050
:10241800C8010020C8010020D0010020D001002000
:10242800D8010020D8010020E0010020E0010020B0
:10243800E8010020E8010020F0010020F001002060
:10244800F8010020F801002000020020000200200E
:1024580008020020080200201002002010020020BC
:10246800180200201802002020020020200200206C
:10247800280200202802002030020020300200201C
:1024880038020020380200204002002040020020CC
:10249800480200204802002050020020500200207C
:1024A800580200205802002060020020600200202C
:1024B80068020020680200207002002070020020DC
:1024C800780200207802002080020020800200208C
:1024D800880200208802002090020020900200203C
:1024E8009802002098020020A0020020A0020020EC
:1024F800A8020020A8020020B0020020B00200209C
:10250800B8020020B8020020C0020020C00200204B
:10251800C8020020C8020020D0020020D0020020FB
:10252800D8020020D8020020E0020020E0020020AB
:10253800E8020020E8020020F0020020F00200205B
:10254800F8020020F8020020000300200003002009
:1025580008030020080300201003002010030020B7
:102568001803002018030020200300202003002067
:102578002803002028030020300300203003002017
:1025880038030020380300204003002040030020C7
:102598004803002048030020500300205003002077
:1025A8005803002058030020600300206003002027
:1025B80068030020680300207003002070030020D7
:1025C8007803002078030020800300208003002087
:1025D8008803002088030020900300209003002037
:1025E8009803002098030020A0030020A0030020E7
:1025F800A8030020A8030020B0030020B003002097
:10260800B8030020B8030020C0030020C003002046
:10261800C8030020C8030020D0030020D0030020F6
:10262800D8030020D8030020E0030020E0030020A6
:10263800E8030020E8030020F0030020F003002056
:10264800F8030020F8030020000400200004002004
:1026580008040020080400202004002000000000D6
:1026680000000000BC050020240600208C06002085
:102678000000000000000000000000000000000052
:102688000000000000000000000000000000000042
:102698000000000000000000000000000000000032
:1026A8000000000000000000000000000000000022
:1026B8000000000000000000000000000000000012
:1026C8000000000000000000000000000000000002
:1026D80000000000000000000000000000000000F2
:1026E80000000000000000000000000000000000E2
:1026F80000000000000000000100000000000000D1
:102708000E33CDAB34126DE6ECDE05000B00000095
:1027180000000000000000000000000000000000B1
:1027280000000000000000000000000000000000A1
:102738000000000000000000000000000000000091
:102748000000000000000000000000000000000081
:102758000000000000000000000000000000000071
:102768000000000000000000000000000000000061
:102778000000000000000000000000000000000051
:102788000000000000000000000000000000000041
:102798000000000000000000000000000000000031
:0427A800F80600200F
:0400000508000811D6
:00000001FF
