:020000040800F2
:10000000008001201D0200086D0200086D0200083A
:100010006D0200086D0200086D020008000000007B
:100020000000000000000000000000006D02000859
:100030006D020008000000006D0200086D0200085B
:100040006D0200086D0200086D0200086D020008D4
:100050006D0200086D0200086D0200086D020008C4
:100060006D0200086D0200086D0200086D020008B4
:100070006D0200086D0200086D0200086D020008A4
:100080006D0200086D0200086D0200086D02000894
:100090006D0200086D0200086D0200086D02000884
:1000A0006D0200086D0200086D0200086D02000874
:1000B0006D0200086D0200086D0200086D02000864
:1000C0006D0200086D0200086D0200086D02000854
:1000D0006D0200086D0200086D0200086D02000844
:1000E0006D0200086D0200086D0200086D02000834
:1000F0006D0200086D0200086D0200086D02000824
:100100006D0200086D0200086D0200086D02000813
:100110006D0200086D0200086D0200086D02000803
:100120006D0200086D0200086D0200086D020008F3
:100130006D0200086D0200086D0200086D020008E3
:100140006D0200086D0200086D0200086D020008D3
:100150006D0200086D0200086D0200086D020008C3
:100160006D0200086D0200086D0200086D020008B3
:100170006D0200086D0200086D020008000000001A
:080180006D0200086D02000889
:100188000348044B834202D0034B03B1184770471E
:100198000400002004000020000000000548064B71
:1001A8001B1AD90F01EBA301491002D0034B03B16D
:1001B80018477047040000200400002000000000D9
:1001C80010B5064C237843B9FFF7DAFF044B13B197
:1001D8000448AFF300800123237010BD0400002001
:1001E80000000000B403000808B5054B1BB1054921
:1001F8000548AFF30080BDE80840FFF7CFBF00BF58
:100208000000000008000020B403000880B400AF1C
:1002180000BFFDE7DFF834D000F026F80C480D49A0
:100228000D4A002302E0D458C4500433C4188C4249
:10023800F9D30A4A0A4C002301E013600432A242AF
:10024800FBD300F023F8FFF7E1FFFEE70080012071
:100258000000002004000020E00300080400002043
:10026800B8010020FEE7000080B400AF064BD3F8C9
:100278008830054A43F47003C2F8883000BFBD4691
:100288005DF8047B704700BF00ED00E070B50F4BD0
:100298000F4DAB42A3EB050607D0B610002455F866
:1002A800043B01349847A642F9D800F07FF8094D7D
:1002B800094B5E1BAB424FEAA60606D0002455F850
:1002C800043B01349847A642F9D870BDD40300080E
:1002D800D4030008D4030008DC030008704700BFFB
:1002E800704700BF024B13B1024800F005B87047D1
:1002F800000000000D030008002301461A461846B6
:1003080000F014B838B5074D074C2C1BA41005D0C5
:10031800013C55F8043D9847002CF9D1BDE8384018
:1003280000F04AB8E0030008DC0300082DE9F843B0
:100338001B4D0646286898460F469146FFF7CEFFA4
:10034800184B1C681CB3286865681F2D22DC4EB941
:100358006B1C0235636044F82570FFF7C1FF00206D
:10036800BDE8F88304EB85010123C1F88890D4F82F
:100378008821AB401A43022EC4F88821C1F80881AD
:10038800E6D1D4F88C211A43C4F88C21E0E7064C56
:100398001C60D8E7FFF7A4FF4FF0FF30E0E700BF8D
:1003A800000000202400002028000020F8B500BF2D
:1003B800F8BC08BC9E467047F8B500BFF8BC08BC3E
:0403C8009E46704796
:0803CC0048FEFF7F0100000064
:0803D400ED020008F101000830
:0403DC00C90100084B
:0403E00020000020D9
:040000050800021DD0
:00000001FF
